{
  "contractName": "MultiSigWallet",
  "abi": [
    {
      "inputs": [],
      "payable": false,
      "stateMutability": "nonpayable",
      "type": "constructor"
    },
    {
      "payable": true,
      "stateMutability": "payable",
      "type": "fallback"
    },
    {
      "anonymous": false,
      "inputs": [
        {
          "indexed": false,
          "name": "source",
          "type": "address"
        },
        {
          "indexed": false,
          "name": "amount",
          "type": "uint256"
        }
      ],
      "name": "DepositFunds",
      "type": "event"
    },
    {
      "anonymous": false,
      "inputs": [
        {
          "indexed": false,
          "name": "source",
          "type": "address"
        },
        {
          "indexed": false,
          "name": "destination",
          "type": "address"
        },
        {
          "indexed": false,
          "name": "value",
          "type": "uint256"
        },
        {
          "indexed": false,
          "name": "transactionID",
          "type": "uint256"
        }
      ],
      "name": "TransactionCreated",
      "type": "event"
    },
    {
      "anonymous": false,
      "inputs": [
        {
          "indexed": false,
          "name": "source",
          "type": "address"
        },
        {
          "indexed": false,
          "name": "destination",
          "type": "address"
        },
        {
          "indexed": false,
          "name": "value",
          "type": "uint256"
        },
        {
          "indexed": false,
          "name": "transactionID",
          "type": "uint256"
        }
      ],
      "name": "TransactionCompleted",
      "type": "event"
    },
    {
      "anonymous": false,
      "inputs": [
        {
          "indexed": false,
          "name": "by",
          "type": "address"
        },
        {
          "indexed": false,
          "name": "transactionID",
          "type": "uint256"
        }
      ],
      "name": "TransactionSigned",
      "type": "event"
    },
    {
      "constant": false,
      "inputs": [
        {
          "name": "newOwner",
          "type": "address"
        }
      ],
      "name": "addOwner",
      "outputs": [],
      "payable": false,
      "stateMutability": "nonpayable",
      "type": "function"
    },
    {
      "constant": false,
      "inputs": [
        {
          "name": "existingOwner",
          "type": "address"
        }
      ],
      "name": "removeOwner",
      "outputs": [],
      "payable": false,
      "stateMutability": "nonpayable",
      "type": "function"
    },
    {
      "constant": false,
      "inputs": [
        {
          "name": "amount",
          "type": "uint256"
        }
      ],
      "name": "withdraw",
      "outputs": [],
      "payable": false,
      "stateMutability": "nonpayable",
      "type": "function"
    },
    {
      "constant": false,
      "inputs": [
        {
          "name": "destination",
          "type": "address"
        },
        {
          "name": "value",
          "type": "uint256"
        }
      ],
      "name": "transferTo",
      "outputs": [],
      "payable": false,
      "stateMutability": "nonpayable",
      "type": "function"
    },
    {
      "constant": true,
      "inputs": [],
      "name": "getPendingTransactions",
      "outputs": [
        {
          "name": "",
          "type": "uint256[]"
        }
      ],
      "payable": false,
      "stateMutability": "view",
      "type": "function"
    },
    {
      "constant": false,
      "inputs": [
        {
          "name": "transactionID",
          "type": "uint256"
        }
      ],
      "name": "signTransaction",
      "outputs": [],
      "payable": false,
      "stateMutability": "nonpayable",
      "type": "function"
    },
    {
      "constant": false,
      "inputs": [
        {
          "name": "transactionId",
          "type": "uint256"
        }
      ],
      "name": "deleteTransaction",
      "outputs": [],
      "payable": false,
      "stateMutability": "nonpayable",
      "type": "function"
    },
    {
      "constant": true,
      "inputs": [],
      "name": "walletBalance",
      "outputs": [
        {
          "name": "",
          "type": "uint256"
        }
      ],
      "payable": false,
      "stateMutability": "view",
      "type": "function"
    }
  ],
  "bytecode": "0x6060604052341561000f57600080fd5b336000806101000a81548173ffffffffffffffffffffffffffffffffffffffff021916908373ffffffffffffffffffffffffffffffffffffffff16021790555061101a8061005e6000396000f30060606040526004361061008d576000357c0100000000000000000000000000000000000000000000000000000000900463ffffffff168062e9c006146100fa578063173825d91461011d5780632ccb1b30146101565780632e1a7d4d146101985780635d9ec210146101bb5780637065cb48146101de578063cd0a314b14610217578063d11db83f14610240575b7fd241e73300212f6df233a8e6d3146b88a9d4964e06621d54b5ff6afeba7b1b883334604051808373ffffffffffffffffffffffffffffffffffffffff1673ffffffffffffffffffffffffffffffffffffffff1681526020018281526020019250505060405180910390a1005b341561010557600080fd5b61011b60048080359060200190919050506102aa565b005b341561012857600080fd5b610154600480803573ffffffffffffffffffffffffffffffffffffffff169060200190919050506104ae565b005b341561016157600080fd5b610196600480803573ffffffffffffffffffffffffffffffffffffffff16906020019091908035906020019091905050610565565b005b34156101a357600080fd5b6101b960048080359060200190919050506107ba565b005b34156101c657600080fd5b6101dc6004808035906020019091905050610823565b005b34156101e957600080fd5b610215600480803573ffffffffffffffffffffffffffffffffffffffff16906020019091905050610d4d565b005b341561022257600080fd5b61022a610e03565b6040518082815260200191505060405180910390f35b341561024b57600080fd5b610253610e22565b6040518080602001828103825283818151815260200191508051906020019060200280838360005b8381101561029657808201518184015260208101905061027b565b505050509050019250505060405180910390f35b6000806000809054906101000a900473ffffffffffffffffffffffffffffffffffffffff1673ffffffffffffffffffffffffffffffffffffffff163373ffffffffffffffffffffffffffffffffffffffff161480610356575060018060003373ffffffffffffffffffffffffffffffffffffffff1673ffffffffffffffffffffffffffffffffffffffff16815260200190815260200160002060009054906101000a900460ff1660ff16145b151561036157600080fd5b60009150600090505b6003805490508110156103f9578160ff16600114156103c45760038181548110151561039257fe5b9060005260206000209001546003600183038154811015156103b057fe5b9060005260206000209001819055506103ec565b6003818154811015156103d357fe5b9060005260206000209001548314156103eb57600191505b5b808060010191505061036a565b600360016003805490500381548110151561041057fe5b90600052602060002090016000905560038054809190600190036104349190610f34565b5060026000848152602001908152602001600020600080820160006101000a81549073ffffffffffffffffffffffffffffffffffffffff02191690556001820160006101000a81549073ffffffffffffffffffffffffffffffffffffffff0219169055600282016000905560038201600090555050505050565b6000809054906101000a900473ffffffffffffffffffffffffffffffffffffffff1673ffffffffffffffffffffffffffffffffffffffff163373ffffffffffffffffffffffffffffffffffffffff1614151561050957600080fd5b6000600160008373ffffffffffffffffffffffffffffffffffffffff1673ffffffffffffffffffffffffffffffffffffffff16815260200190815260200160002060006101000a81548160ff021916908360ff16021790555050565b61056d610f60565b6000809054906101000a900473ffffffffffffffffffffffffffffffffffffffff1673ffffffffffffffffffffffffffffffffffffffff163373ffffffffffffffffffffffffffffffffffffffff161480610616575060018060003373ffffffffffffffffffffffffffffffffffffffff1673ffffffffffffffffffffffffffffffffffffffff16815260200190815260200160002060009054906101000a900460ff1660ff16145b151561062157600080fd5b813073ffffffffffffffffffffffffffffffffffffffff16311015151561064757600080fd5b33816000019073ffffffffffffffffffffffffffffffffffffffff16908173ffffffffffffffffffffffffffffffffffffffff168152505082816020019073ffffffffffffffffffffffffffffffffffffffff16908173ffffffffffffffffffffffffffffffffffffffff1681525050818160400181815250506000816060018181525050600160036004548154811015156106df57fe5b9060005260206000209001819055507f41d8c89c4a25824354aa1f198d80d06f2f93f903a2d180d1ea20429a4678c4a4816000015182602001518360400151600454604051808573ffffffffffffffffffffffffffffffffffffffff1673ffffffffffffffffffffffffffffffffffffffff1681526020018473ffffffffffffffffffffffffffffffffffffffff1673ffffffffffffffffffffffffffffffffffffffff16815260200183815260200182815260200194505050505060405180910390a1600460008154809291906001019190505550505050565b803073ffffffffffffffffffffffffffffffffffffffff1631101515156107e057600080fd5b3373ffffffffffffffffffffffffffffffffffffffff166108fc829081150290604051600060405180830381858888f19350505050151561082057600080fd5b50565b60008060009054906101000a900473ffffffffffffffffffffffffffffffffffffffff1673ffffffffffffffffffffffffffffffffffffffff163373ffffffffffffffffffffffffffffffffffffffff1614806108ce575060018060003373ffffffffffffffffffffffffffffffffffffffff1673ffffffffffffffffffffffffffffffffffffffff16815260200190815260200160002060009054906101000a900460ff1660ff16145b15156108d957600080fd5b60026000838152602001908152602001600020905060006003838154811015156108ff57fe5b9060005260206000209001541415151561091857600080fd5b8060000160009054906101000a900473ffffffffffffffffffffffffffffffffffffffff1673ffffffffffffffffffffffffffffffffffffffff163373ffffffffffffffffffffffffffffffffffffffff161415151561097757600080fd5b60008160040160003373ffffffffffffffffffffffffffffffffffffffff1673ffffffffffffffffffffffffffffffffffffffff16815260200190815260200160002060009054906101000a900460ff1660ff161415156109d757600080fd5b60018160040160003373ffffffffffffffffffffffffffffffffffffffff1673ffffffffffffffffffffffffffffffffffffffff16815260200190815260200160002060006101000a81548160ff021916908360ff16021790555080600301600081548092919060010191905055507fac63e7e1dc16bccf900879686e74ca33eeb175b670e3aaa9d7e4ccf3781b7a7a3383604051808373ffffffffffffffffffffffffffffffffffffffff1673ffffffffffffffffffffffffffffffffffffffff1681526020018281526020019250505060405180910390a160028160030154101515610d495780600201543073ffffffffffffffffffffffffffffffffffffffff163110151515610ae957600080fd5b8060010160009054906101000a900473ffffffffffffffffffffffffffffffffffffffff1673ffffffffffffffffffffffffffffffffffffffff166108fc82600201549081150290604051600060405180830381858888f193505050501515610b5157600080fd5b806002600060045481526020019081526020016000206000820160009054906101000a900473ffffffffffffffffffffffffffffffffffffffff168160000160006101000a81548173ffffffffffffffffffffffffffffffffffffffff021916908373ffffffffffffffffffffffffffffffffffffffff1602179055506001820160009054906101000a900473ffffffffffffffffffffffffffffffffffffffff168160010160006101000a81548173ffffffffffffffffffffffffffffffffffffffff021916908373ffffffffffffffffffffffffffffffffffffffff16021790555060028201548160020155600382015481600301559050507f394c4e679790fab24fd86614fd812811c9c835e4c475bdfc3d26fd0d6f7ca6fd8160000160009054906101000a900473ffffffffffffffffffffffffffffffffffffffff168260010160009054906101000a900473ffffffffffffffffffffffffffffffffffffffff16836002015485604051808573ffffffffffffffffffffffffffffffffffffffff1673ffffffffffffffffffffffffffffffffffffffff1681526020018473ffffffffffffffffffffffffffffffffffffffff1673ffffffffffffffffffffffffffffffffffffffff16815260200183815260200182815260200194505050505060405180910390a1610d48826102aa565b5b5050565b6000809054906101000a900473ffffffffffffffffffffffffffffffffffffffff1673ffffffffffffffffffffffffffffffffffffffff163373ffffffffffffffffffffffffffffffffffffffff16141515610da857600080fd5b60018060008373ffffffffffffffffffffffffffffffffffffffff1673ffffffffffffffffffffffffffffffffffffffff16815260200190815260200160002060006101000a81548160ff021916908360ff16021790555050565b60003073ffffffffffffffffffffffffffffffffffffffff1631905090565b610e2a610fb5565b6000809054906101000a900473ffffffffffffffffffffffffffffffffffffffff1673ffffffffffffffffffffffffffffffffffffffff163373ffffffffffffffffffffffffffffffffffffffff161480610ed3575060018060003373ffffffffffffffffffffffffffffffffffffffff1673ffffffffffffffffffffffffffffffffffffffff16815260200190815260200160002060009054906101000a900460ff1660ff16145b1515610ede57600080fd5b6003805480602002602001604051908101604052809291908181526020018280548015610f2a57602002820191906000526020600020905b815481526020019060010190808311610f16575b5050505050905090565b815481835581811511610f5b57818360005260206000209182019101610f5a9190610fc9565b5b505050565b608060405190810160405280600073ffffffffffffffffffffffffffffffffffffffff168152602001600073ffffffffffffffffffffffffffffffffffffffff16815260200160008152602001600081525090565b602060405190810160405280600081525090565b610feb91905b80821115610fe7576000816000905550600101610fcf565b5090565b905600a165627a7a723058207fce3eb37c3c32c060cc0f17f8ed0062db3829071b567e98491997401fb4e7e10029",
  "source": "pragma solidity ^0.4.15;\n\ncontract MultiSigWallet {\n    address private _owner;\n    mapping(address => uint8) private _owners;\n\n    mapping (uint => Transaction) private _transactions;\n    uint[] private _pendingTransactions;\n\n    // auto incrememnting transaction ID\n    uint private _transactionIndex;\n    // constant: we need x amount of signatures to sign Transaction\n    uint constant MIN_SIGNATURES = 2;\n\n    struct Transaction {\n        address source;\n        address destination;\n        uint value;\n        //add how many people signed and who\n        uint signatureCount;\n        //need to keep record of who signed\n        mapping (address => uint8) signatures;\n    }\n\n    modifier isOwner() {\n        require(msg.sender == _owner);\n        _;\n    }\n\n    modifier validOwner() {\n        require(msg.sender == _owner || _owners[msg.sender] == 1);\n        _;\n    }\n\n    /// @dev logged events\n    event DepositFunds(address source, uint amount);\n    /// @dev full sequence of the transaction event logged\n    event TransactionCreated(address source, address destination, uint value, uint transactionID);\n    event TransactionCompleted(address source, address destination, uint value, uint transactionID);\n    /// @dev keeps track of who is signing the transactions\n    event TransactionSigned(address by, uint transactionID);\n\n\n    /// @dev Contract constructor sets initial owners\n    function MultiSigWallet() public {\n        _owner = msg.sender;\n    }\n\n    /// @dev add new owner to have access, enables the ability to create more than one owner to manage the wallet\n    function addOwner(address newOwner) isOwner public {\n      _owners[newOwner] = 1;\n    }\n\n    /// @dev remove suspicious owners\n    function removeOwner(address existingOwner) isOwner public {\n      _owners[existingOwner] = 0;\n    }\n\n    /// @dev Fallback function, which accepts ether when sent to contract\n    function () public payable {\n        DepositFunds(msg.sender, msg.value);\n    }\n\n    function withdraw(uint amount) public {\n      require(address(this).balance >= amount);\n      msg.sender.transfer(amount);\n\n    }\n\n    /// @dev Send ether to specific a transaction\n    /// @param destination Transaction target address.\n    /// @param value Transaction ether value.\n    ///\n    /// Start by creating your transaction. Since we defined it as a struct,\n    /// we need to define it in a memory context. Update the member attributes.\n    ///\n    /// note, keep transactionID updated\n    function transferTo(address destination, uint value) validOwner public {\n      require(address(this).balance >= value);\n\n      //create the transaction\n      Transaction memory t;\n      t.source = msg.sender;\n      t.destination = destination;\n      t.value = value;\n      t.signatureCount = 0;\n\n\n\n      //add transaction to the data structures\n      _pendingTransactions[_transactionIndex] = 1;\n\n\n      //log that the transaction was created to a specific address\n      TransactionCreated(t.source, t.destination, t.value, _transactionIndex);\n      _transactionIndex++;\n    }\n\n    //returns pending transcations\n    function getPendingTransactions() constant validOwner public returns (uint[]) {\n      return _pendingTransactions;\n    }\n\n    /// @dev Allows an owner to confirm a transaction.\n    /// @param transactionID Transaction ID.\n    /// Sign and Execute transaction.\n    function signTransaction(uint transactionID) validOwner public {\n      //Use Transaction Structure. Above in TransferTo function, because\n      //we created the structure, we had to specify the keyword memory.\n      //Now, we are pulling in the structure from a storage mechanism\n      //Basically, 'storage' will stop the EVM from duplicating the actual\n      //object, and instead will reference it directly.\n\n      //Create variable transaction using storage (which creates a reference point)\n      Transaction storage transaction = _transactions[transactionID];\n\n      // Transaction must exist, note: use require(), but can't do require(transaction), .\n      require(_pendingTransactions[transactionID] != 0);\n\n      // Creator cannot sign the transaction, use require()\n      require(msg.sender != transaction.source);\n\n      // Cannot sign a transaction more than once, use require()\n      require(transaction.signatures[msg.sender] == 0);\n\n      // assign the transaction = 1, so that when the function is called again it will fail\n      transaction.signatures[msg.sender] = 1;\n\n      // increment signatureCount\n      transaction.signatureCount++;\n\n      // log transaction\n      TransactionSigned(msg.sender, transactionID);\n\n      //  check to see if transaction has enough signatures so that it can actually be completed\n      // if true, make the transaction. Don't forget to log the transaction was completed.\n      if (transaction.signatureCount >= MIN_SIGNATURES) {\n        require(address(this).balance >= transaction.value); //validate transaction\n        transaction.destination.transfer(transaction.value);\n        _transactions[_transactionIndex] = transaction;\n\n        //log that the transaction was complete\n        TransactionCompleted(transaction.source, transaction.destination,\n          transaction.value, transactionID);\n\n        //end with a call to deleteTransaction\n        deleteTransaction(transactionID);\n      }\n    }\n\n    /// @dev clean up function\n    function deleteTransaction(uint transactionId) validOwner public {\n\n      uint8 replace = 0;\n      for(uint i = 0; i < _pendingTransactions.length; i++) {\n        if (1 == replace) {\n          _pendingTransactions[i-1] = _pendingTransactions[i];\n        } else if (transactionId == _pendingTransactions[i]) {\n          replace = 1;\n        }\n      }\n      delete _pendingTransactions[_pendingTransactions.length - 1];\n      _pendingTransactions.length--;\n      delete _transactions[transactionId];\n\n    }\n\n    /// @return Returns balance\n    function walletBalance() constant public returns (uint) {\n      return address(this).balance;\n    }\n\n }\n",
  "sourcePath": "/Users/kunalkak/Blockchain/sp18-midterm-pt2/contracts/MultiSigWallet.sol",
  "compiler": {
    "name": "solc",
    "version": "0.4.19+commit.c4cbbb05.Emscripten.clang"
  },
  "schemaVersion": "1.0.1",
  "updatedAt": "2018-03-15T22:11:05.560Z"
}